{
    "_format": "hh-sol-artifact-1",
    "contractName": "SwapPlus",
    "sourceName": "contracts/SwapPlus.sol",
    "abi": [
        {
            "inputs": [
                {
                    "internalType": "contract IERC20",
                    "name": "_token",
                    "type": "address"
                },
                {
                    "internalType": "address",
                    "name": "_oracleAddress",
                    "type": "address"
                },
                {
                    "internalType": "address",
                    "name": "_adminAddress",
                    "type": "address"
                },
                {
                    "internalType": "address",
                    "name": "_operatorAddress",
                    "type": "address"
                },
                {
                    "internalType": "uint256",
                    "name": "_intervalSeconds",
                    "type": "uint256"
                },
                {
                    "internalType": "uint256",
                    "name": "_bufferSeconds",
                    "type": "uint256"
                },
                {
                    "internalType": "uint256",
                    "name": "_minBetAmount",
                    "type": "uint256"
                },
                {
                    "internalType": "uint256",
                    "name": "_oracleUpdateAllowance",
                    "type": "uint256"
                },
                {
                    "internalType": "uint256",
                    "name": "_treasuryFee",
                    "type": "uint256"
                }
            ],
            "stateMutability": "nonpayable",
            "type": "constructor"
        },
        {
            "anonymous": false,
            "inputs": [
                {
                    "indexed": false,
                    "internalType": "address",
                    "name": "applyer",
                    "type": "address"
                },
                {
                    "indexed": false,
                    "internalType": "address",
                    "name": "addressF0",
                    "type": "address"
                },
                {
                    "indexed": false,
                    "internalType": "uint256",
                    "name": "referralCodeF0",
                    "type": "uint256"
                }
            ],
            "name": "ApplyReferralCode",
            "type": "event"
        },
        {
            "anonymous": false,
            "inputs": [
                {
                    "indexed": true,
                    "internalType": "address",
                    "name": "sender",
                    "type": "address"
                },
                {
                    "indexed": true,
                    "internalType": "uint256",
                    "name": "epoch",
                    "type": "uint256"
                },
                {
                    "indexed": false,
                    "internalType": "uint256",
                    "name": "amount",
                    "type": "uint256"
                }
            ],
            "name": "BetBear",
            "type": "event"
        },
        {
            "anonymous": false,
            "inputs": [
                {
                    "indexed": true,
                    "internalType": "address",
                    "name": "sender",
                    "type": "address"
                },
                {
                    "indexed": true,
                    "internalType": "uint256",
                    "name": "epoch",
                    "type": "uint256"
                },
                {
                    "indexed": false,
                    "internalType": "uint256",
                    "name": "amount",
                    "type": "uint256"
                }
            ],
            "name": "BetBull",
            "type": "event"
        },
        {
            "anonymous": false,
            "inputs": [
                {
                    "indexed": false,
                    "internalType": "address",
                    "name": "buyer",
                    "type": "address"
                },
                {
                    "indexed": false,
                    "internalType": "uint256",
                    "name": "referralCode",
                    "type": "uint256"
                }
            ],
            "name": "BuyVIP",
            "type": "event"
        },
        {
            "anonymous": false,
            "inputs": [
                {
                    "indexed": true,
                    "internalType": "address",
                    "name": "sender",
                    "type": "address"
                },
                {
                    "indexed": true,
                    "internalType": "uint256",
                    "name": "epoch",
                    "type": "uint256"
                },
                {
                    "indexed": false,
                    "internalType": "uint256",
                    "name": "amount",
                    "type": "uint256"
                }
            ],
            "name": "Claim",
            "type": "event"
        },
        {
            "anonymous": false,
            "inputs": [
                {
                    "indexed": false,
                    "internalType": "address",
                    "name": "receiver",
                    "type": "address"
                },
                {
                    "indexed": false,
                    "internalType": "uint256",
                    "name": "amount",
                    "type": "uint256"
                }
            ],
            "name": "ClaimReward",
            "type": "event"
        },
        {
            "anonymous": false,
            "inputs": [
                {
                    "indexed": true,
                    "internalType": "uint256",
                    "name": "epoch",
                    "type": "uint256"
                },
                {
                    "indexed": true,
                    "internalType": "uint256",
                    "name": "roundId",
                    "type": "uint256"
                },
                {
                    "indexed": false,
                    "internalType": "int256",
                    "name": "price",
                    "type": "int256"
                }
            ],
            "name": "EndRound",
            "type": "event"
        },
        {
            "anonymous": false,
            "inputs": [
                {
                    "indexed": true,
                    "internalType": "uint256",
                    "name": "epoch",
                    "type": "uint256"
                },
                {
                    "indexed": true,
                    "internalType": "uint256",
                    "name": "roundId",
                    "type": "uint256"
                },
                {
                    "indexed": false,
                    "internalType": "int256",
                    "name": "price",
                    "type": "int256"
                }
            ],
            "name": "LockRound",
            "type": "event"
        },
        {
            "anonymous": false,
            "inputs": [
                {
                    "indexed": false,
                    "internalType": "address",
                    "name": "admin",
                    "type": "address"
                }
            ],
            "name": "NewAdminAddress",
            "type": "event"
        },
        {
            "anonymous": false,
            "inputs": [
                {
                    "indexed": false,
                    "internalType": "uint256",
                    "name": "f0Bonus",
                    "type": "uint256"
                },
                {
                    "indexed": false,
                    "internalType": "uint256",
                    "name": "f1Bonus",
                    "type": "uint256"
                },
                {
                    "indexed": false,
                    "internalType": "uint256",
                    "name": "f2Bonus",
                    "type": "uint256"
                },
                {
                    "indexed": false,
                    "internalType": "uint256",
                    "name": "f3Bonus",
                    "type": "uint256"
                },
                {
                    "indexed": false,
                    "internalType": "uint256",
                    "name": "f4Bonus",
                    "type": "uint256"
                },
                {
                    "indexed": false,
                    "internalType": "uint256",
                    "name": "f5Bonus",
                    "type": "uint256"
                },
                {
                    "indexed": false,
                    "internalType": "uint256",
                    "name": "f6Bonus",
                    "type": "uint256"
                }
            ],
            "name": "NewBonus",
            "type": "event"
        },
        {
            "anonymous": false,
            "inputs": [
                {
                    "indexed": false,
                    "internalType": "uint256",
                    "name": "bufferSeconds",
                    "type": "uint256"
                },
                {
                    "indexed": false,
                    "internalType": "uint256",
                    "name": "intervalSeconds",
                    "type": "uint256"
                }
            ],
            "name": "NewBufferAndIntervalSeconds",
            "type": "event"
        },
        {
            "anonymous": false,
            "inputs": [
                {
                    "indexed": false,
                    "internalType": "uint256",
                    "name": "maxIndex",
                    "type": "uint256"
                }
            ],
            "name": "NewMaxIndex",
            "type": "event"
        },
        {
            "anonymous": false,
            "inputs": [
                {
                    "indexed": true,
                    "internalType": "uint256",
                    "name": "epoch",
                    "type": "uint256"
                },
                {
                    "indexed": false,
                    "internalType": "uint256",
                    "name": "minBetAmount",
                    "type": "uint256"
                }
            ],
            "name": "NewMinBetAmount",
            "type": "event"
        },
        {
            "anonymous": false,
            "inputs": [
                {
                    "indexed": false,
                    "internalType": "address",
                    "name": "operator",
                    "type": "address"
                }
            ],
            "name": "NewOperatorAddress",
            "type": "event"
        },
        {
            "anonymous": false,
            "inputs": [
                {
                    "indexed": false,
                    "internalType": "address",
                    "name": "oracle",
                    "type": "address"
                }
            ],
            "name": "NewOracle",
            "type": "event"
        },
        {
            "anonymous": false,
            "inputs": [
                {
                    "indexed": false,
                    "internalType": "uint256",
                    "name": "oracleUpdateAllowance",
                    "type": "uint256"
                }
            ],
            "name": "NewOracleUpdateAllowance",
            "type": "event"
        },
        {
            "anonymous": false,
            "inputs": [
                {
                    "indexed": false,
                    "internalType": "uint256",
                    "name": "startIndex",
                    "type": "uint256"
                }
            ],
            "name": "NewStartIndex",
            "type": "event"
        },
        {
            "anonymous": false,
            "inputs": [
                {
                    "indexed": true,
                    "internalType": "uint256",
                    "name": "epoch",
                    "type": "uint256"
                },
                {
                    "indexed": false,
                    "internalType": "uint256",
                    "name": "treasuryFee",
                    "type": "uint256"
                }
            ],
            "name": "NewTreasuryFee",
            "type": "event"
        },
        {
            "anonymous": false,
            "inputs": [
                {
                    "indexed": false,
                    "internalType": "uint256",
                    "name": "vpiPrice",
                    "type": "uint256"
                }
            ],
            "name": "NewVIPPrice",
            "type": "event"
        },
        {
            "anonymous": false,
            "inputs": [
                {
                    "indexed": true,
                    "internalType": "address",
                    "name": "previousOwner",
                    "type": "address"
                },
                {
                    "indexed": true,
                    "internalType": "address",
                    "name": "newOwner",
                    "type": "address"
                }
            ],
            "name": "OwnershipTransferred",
            "type": "event"
        },
        {
            "anonymous": false,
            "inputs": [
                {
                    "indexed": true,
                    "internalType": "uint256",
                    "name": "epoch",
                    "type": "uint256"
                }
            ],
            "name": "Pause",
            "type": "event"
        },
        {
            "anonymous": false,
            "inputs": [
                {
                    "indexed": false,
                    "internalType": "address",
                    "name": "account",
                    "type": "address"
                }
            ],
            "name": "Paused",
            "type": "event"
        },
        {
            "anonymous": false,
            "inputs": [
                {
                    "indexed": false,
                    "internalType": "address",
                    "name": "receiver",
                    "type": "address"
                },
                {
                    "indexed": false,
                    "internalType": "uint256",
                    "name": "amount",
                    "type": "uint256"
                }
            ],
            "name": "PayReward",
            "type": "event"
        },
        {
            "anonymous": false,
            "inputs": [
                {
                    "indexed": false,
                    "internalType": "address",
                    "name": "user",
                    "type": "address"
                },
                {
                    "indexed": false,
                    "internalType": "uint256",
                    "name": "amount",
                    "type": "uint256"
                }
            ],
            "name": "RevokeReward",
            "type": "event"
        },
        {
            "anonymous": false,
            "inputs": [
                {
                    "indexed": true,
                    "internalType": "uint256",
                    "name": "epoch",
                    "type": "uint256"
                },
                {
                    "indexed": false,
                    "internalType": "uint256",
                    "name": "rewardBaseCalAmount",
                    "type": "uint256"
                },
                {
                    "indexed": false,
                    "internalType": "uint256",
                    "name": "rewardAmount",
                    "type": "uint256"
                },
                {
                    "indexed": false,
                    "internalType": "uint256",
                    "name": "treasuryAmount",
                    "type": "uint256"
                }
            ],
            "name": "RewardsCalculated",
            "type": "event"
        },
        {
            "anonymous": false,
            "inputs": [
                {
                    "indexed": true,
                    "internalType": "uint256",
                    "name": "epoch",
                    "type": "uint256"
                }
            ],
            "name": "StartRound",
            "type": "event"
        },
        {
            "anonymous": false,
            "inputs": [
                {
                    "indexed": true,
                    "internalType": "address",
                    "name": "token",
                    "type": "address"
                },
                {
                    "indexed": false,
                    "internalType": "uint256",
                    "name": "amount",
                    "type": "uint256"
                }
            ],
            "name": "TokenRecovery",
            "type": "event"
        },
        {
            "anonymous": false,
            "inputs": [
                {
                    "indexed": false,
                    "internalType": "uint256",
                    "name": "amount",
                    "type": "uint256"
                }
            ],
            "name": "TreasuryClaim",
            "type": "event"
        },
        {
            "anonymous": false,
            "inputs": [
                {
                    "indexed": true,
                    "internalType": "uint256",
                    "name": "epoch",
                    "type": "uint256"
                }
            ],
            "name": "Unpause",
            "type": "event"
        },
        {
            "anonymous": false,
            "inputs": [
                {
                    "indexed": false,
                    "internalType": "address",
                    "name": "account",
                    "type": "address"
                }
            ],
            "name": "Unpaused",
            "type": "event"
        },
        {
            "anonymous": false,
            "inputs": [
                {
                    "indexed": false,
                    "internalType": "address",
                    "name": "to",
                    "type": "address"
                },
                {
                    "indexed": false,
                    "internalType": "uint256",
                    "name": "amount",
                    "type": "uint256"
                }
            ],
            "name": "Withdraw",
            "type": "event"
        },
        {
            "inputs": [],
            "name": "MAX_TREASURY_FEE",
            "outputs": [
                {
                    "internalType": "uint256",
                    "name": "",
                    "type": "uint256"
                }
            ],
            "stateMutability": "view",
            "type": "function"
        },
        {
            "inputs": [
                {
                    "internalType": "address",
                    "name": "",
                    "type": "address"
                }
            ],
            "name": "addressToReferralInfo",
            "outputs": [
                {
                    "internalType": "bool",
                    "name": "isVIP",
                    "type": "bool"
                },
                {
                    "internalType": "uint256",
                    "name": "referralCode",
                    "type": "uint256"
                },
                {
                    "internalType": "address",
                    "name": "owner",
                    "type": "address"
                },
                {
                    "internalType": "bool",
                    "name": "isF1",
                    "type": "bool"
                },
                {
                    "internalType": "address",
                    "name": "addressF0",
                    "type": "address"
                },
                {
                    "internalType": "uint256",
                    "name": "referralCodeF0",
                    "type": "uint256"
                }
            ],
            "stateMutability": "view",
            "type": "function"
        },
        {
            "inputs": [],
            "name": "adminAddress",
            "outputs": [
                {
                    "internalType": "address",
                    "name": "",
                    "type": "address"
                }
            ],
            "stateMutability": "view",
            "type": "function"
        },
        {
            "inputs": [
                {
                    "internalType": "address",
                    "name": "",
                    "type": "address"
                }
            ],
            "name": "alreadyBet",
            "outputs": [
                {
                    "internalType": "bool",
                    "name": "",
                    "type": "bool"
                }
            ],
            "stateMutability": "view",
            "type": "function"
        },
        {
            "inputs": [
                {
                    "internalType": "uint256",
                    "name": "referralCode",
                    "type": "uint256"
                }
            ],
            "name": "applyReferralCode",
            "outputs": [],
            "stateMutability": "nonpayable",
            "type": "function"
        },
        {
            "inputs": [
                {
                    "internalType": "uint256",
                    "name": "epoch",
                    "type": "uint256"
                },
                {
                    "internalType": "uint256",
                    "name": "_amount",
                    "type": "uint256"
                }
            ],
            "name": "betBear",
            "outputs": [],
            "stateMutability": "nonpayable",
            "type": "function"
        },
        {
            "inputs": [
                {
                    "internalType": "uint256",
                    "name": "epoch",
                    "type": "uint256"
                },
                {
                    "internalType": "uint256",
                    "name": "_amount",
                    "type": "uint256"
                }
            ],
            "name": "betBull",
            "outputs": [],
            "stateMutability": "nonpayable",
            "type": "function"
        },
        {
            "inputs": [],
            "name": "bufferSeconds",
            "outputs": [
                {
                    "internalType": "uint256",
                    "name": "",
                    "type": "uint256"
                }
            ],
            "stateMutability": "view",
            "type": "function"
        },
        {
            "inputs": [],
            "name": "buyVIP",
            "outputs": [],
            "stateMutability": "nonpayable",
            "type": "function"
        },
        {
            "inputs": [
                {
                    "internalType": "uint256[]",
                    "name": "epochs",
                    "type": "uint256[]"
                }
            ],
            "name": "claim",
            "outputs": [],
            "stateMutability": "nonpayable",
            "type": "function"
        },
        {
            "inputs": [],
            "name": "claimReward",
            "outputs": [],
            "stateMutability": "nonpayable",
            "type": "function"
        },
        {
            "inputs": [],
            "name": "claimTreasury",
            "outputs": [],
            "stateMutability": "nonpayable",
            "type": "function"
        },
        {
            "inputs": [
                {
                    "internalType": "uint256",
                    "name": "epoch",
                    "type": "uint256"
                },
                {
                    "internalType": "address",
                    "name": "user",
                    "type": "address"
                }
            ],
            "name": "claimable",
            "outputs": [
                {
                    "internalType": "bool",
                    "name": "",
                    "type": "bool"
                }
            ],
            "stateMutability": "view",
            "type": "function"
        },
        {
            "inputs": [],
            "name": "currentEpoch",
            "outputs": [
                {
                    "internalType": "uint256",
                    "name": "",
                    "type": "uint256"
                }
            ],
            "stateMutability": "view",
            "type": "function"
        },
        {
            "inputs": [],
            "name": "executeRound",
            "outputs": [],
            "stateMutability": "nonpayable",
            "type": "function"
        },
        {
            "inputs": [],
            "name": "f0Bonus",
            "outputs": [
                {
                    "internalType": "uint256",
                    "name": "",
                    "type": "uint256"
                }
            ],
            "stateMutability": "view",
            "type": "function"
        },
        {
            "inputs": [],
            "name": "f1Bonus",
            "outputs": [
                {
                    "internalType": "uint256",
                    "name": "",
                    "type": "uint256"
                }
            ],
            "stateMutability": "view",
            "type": "function"
        },
        {
            "inputs": [],
            "name": "f2Bonus",
            "outputs": [
                {
                    "internalType": "uint256",
                    "name": "",
                    "type": "uint256"
                }
            ],
            "stateMutability": "view",
            "type": "function"
        },
        {
            "inputs": [],
            "name": "f3Bonus",
            "outputs": [
                {
                    "internalType": "uint256",
                    "name": "",
                    "type": "uint256"
                }
            ],
            "stateMutability": "view",
            "type": "function"
        },
        {
            "inputs": [],
            "name": "f4Bonus",
            "outputs": [
                {
                    "internalType": "uint256",
                    "name": "",
                    "type": "uint256"
                }
            ],
            "stateMutability": "view",
            "type": "function"
        },
        {
            "inputs": [],
            "name": "f5Bonus",
            "outputs": [
                {
                    "internalType": "uint256",
                    "name": "",
                    "type": "uint256"
                }
            ],
            "stateMutability": "view",
            "type": "function"
        },
        {
            "inputs": [],
            "name": "f6Bonus",
            "outputs": [
                {
                    "internalType": "uint256",
                    "name": "",
                    "type": "uint256"
                }
            ],
            "stateMutability": "view",
            "type": "function"
        },
        {
            "inputs": [],
            "name": "genesisLockOnce",
            "outputs": [
                {
                    "internalType": "bool",
                    "name": "",
                    "type": "bool"
                }
            ],
            "stateMutability": "view",
            "type": "function"
        },
        {
            "inputs": [],
            "name": "genesisLockRound",
            "outputs": [],
            "stateMutability": "nonpayable",
            "type": "function"
        },
        {
            "inputs": [],
            "name": "genesisStartOnce",
            "outputs": [
                {
                    "internalType": "bool",
                    "name": "",
                    "type": "bool"
                }
            ],
            "stateMutability": "view",
            "type": "function"
        },
        {
            "inputs": [],
            "name": "genesisStartRound",
            "outputs": [],
            "stateMutability": "nonpayable",
            "type": "function"
        },
        {
            "inputs": [
                {
                    "internalType": "address",
                    "name": "user",
                    "type": "address"
                },
                {
                    "internalType": "uint256",
                    "name": "cursor",
                    "type": "uint256"
                },
                {
                    "internalType": "uint256",
                    "name": "size",
                    "type": "uint256"
                }
            ],
            "name": "getUserRounds",
            "outputs": [
                {
                    "internalType": "uint256[]",
                    "name": "",
                    "type": "uint256[]"
                },
                {
                    "components": [
                        {
                            "internalType": "enum PancakePredictionV3.Position",
                            "name": "position",
                            "type": "uint8"
                        },
                        {
                            "internalType": "uint256",
                            "name": "amount",
                            "type": "uint256"
                        },
                        {
                            "internalType": "bool",
                            "name": "claimed",
                            "type": "bool"
                        }
                    ],
                    "internalType": "struct PancakePredictionV3.BetInfo[]",
                    "name": "",
                    "type": "tuple[]"
                },
                {
                    "internalType": "uint256",
                    "name": "",
                    "type": "uint256"
                }
            ],
            "stateMutability": "view",
            "type": "function"
        },
        {
            "inputs": [
                {
                    "internalType": "address",
                    "name": "user",
                    "type": "address"
                }
            ],
            "name": "getUserRoundsLength",
            "outputs": [
                {
                    "internalType": "uint256",
                    "name": "",
                    "type": "uint256"
                }
            ],
            "stateMutability": "view",
            "type": "function"
        },
        {
            "inputs": [],
            "name": "intervalSeconds",
            "outputs": [
                {
                    "internalType": "uint256",
                    "name": "",
                    "type": "uint256"
                }
            ],
            "stateMutability": "view",
            "type": "function"
        },
        {
            "inputs": [
                {
                    "internalType": "uint256",
                    "name": "",
                    "type": "uint256"
                },
                {
                    "internalType": "address",
                    "name": "",
                    "type": "address"
                }
            ],
            "name": "ledger",
            "outputs": [
                {
                    "internalType": "enum PancakePredictionV3.Position",
                    "name": "position",
                    "type": "uint8"
                },
                {
                    "internalType": "uint256",
                    "name": "amount",
                    "type": "uint256"
                },
                {
                    "internalType": "bool",
                    "name": "claimed",
                    "type": "bool"
                }
            ],
            "stateMutability": "view",
            "type": "function"
        },
        {
            "inputs": [],
            "name": "maxIndex",
            "outputs": [
                {
                    "internalType": "uint256",
                    "name": "",
                    "type": "uint256"
                }
            ],
            "stateMutability": "view",
            "type": "function"
        },
        {
            "inputs": [],
            "name": "minBetAmount",
            "outputs": [
                {
                    "internalType": "uint256",
                    "name": "",
                    "type": "uint256"
                }
            ],
            "stateMutability": "view",
            "type": "function"
        },
        {
            "inputs": [],
            "name": "operatorAddress",
            "outputs": [
                {
                    "internalType": "address",
                    "name": "",
                    "type": "address"
                }
            ],
            "stateMutability": "view",
            "type": "function"
        },
        {
            "inputs": [],
            "name": "oracle",
            "outputs": [
                {
                    "internalType": "contract AggregatorV3Interface",
                    "name": "",
                    "type": "address"
                }
            ],
            "stateMutability": "view",
            "type": "function"
        },
        {
            "inputs": [],
            "name": "oracleLatestRoundId",
            "outputs": [
                {
                    "internalType": "uint256",
                    "name": "",
                    "type": "uint256"
                }
            ],
            "stateMutability": "view",
            "type": "function"
        },
        {
            "inputs": [],
            "name": "oracleUpdateAllowance",
            "outputs": [
                {
                    "internalType": "uint256",
                    "name": "",
                    "type": "uint256"
                }
            ],
            "stateMutability": "view",
            "type": "function"
        },
        {
            "inputs": [],
            "name": "owner",
            "outputs": [
                {
                    "internalType": "address",
                    "name": "",
                    "type": "address"
                }
            ],
            "stateMutability": "view",
            "type": "function"
        },
        {
            "inputs": [],
            "name": "pause",
            "outputs": [],
            "stateMutability": "nonpayable",
            "type": "function"
        },
        {
            "inputs": [],
            "name": "paused",
            "outputs": [
                {
                    "internalType": "bool",
                    "name": "",
                    "type": "bool"
                }
            ],
            "stateMutability": "view",
            "type": "function"
        },
        {
            "inputs": [
                {
                    "internalType": "address",
                    "name": "receiver",
                    "type": "address"
                },
                {
                    "internalType": "uint256",
                    "name": "amount",
                    "type": "uint256"
                }
            ],
            "name": "payReward",
            "outputs": [],
            "stateMutability": "nonpayable",
            "type": "function"
        },
        {
            "inputs": [
                {
                    "internalType": "address",
                    "name": "",
                    "type": "address"
                }
            ],
            "name": "paymentReward",
            "outputs": [
                {
                    "internalType": "uint256",
                    "name": "",
                    "type": "uint256"
                }
            ],
            "stateMutability": "view",
            "type": "function"
        },
        {
            "inputs": [
                {
                    "internalType": "address",
                    "name": "_token",
                    "type": "address"
                },
                {
                    "internalType": "uint256",
                    "name": "_amount",
                    "type": "uint256"
                }
            ],
            "name": "recoverToken",
            "outputs": [],
            "stateMutability": "nonpayable",
            "type": "function"
        },
        {
            "inputs": [
                {
                    "internalType": "uint256",
                    "name": "",
                    "type": "uint256"
                }
            ],
            "name": "referralCodeToAddress",
            "outputs": [
                {
                    "internalType": "address",
                    "name": "",
                    "type": "address"
                }
            ],
            "stateMutability": "view",
            "type": "function"
        },
        {
            "inputs": [
                {
                    "internalType": "uint256",
                    "name": "epoch",
                    "type": "uint256"
                },
                {
                    "internalType": "address",
                    "name": "user",
                    "type": "address"
                }
            ],
            "name": "refundable",
            "outputs": [
                {
                    "internalType": "bool",
                    "name": "",
                    "type": "bool"
                }
            ],
            "stateMutability": "view",
            "type": "function"
        },
        {
            "inputs": [],
            "name": "renounceOwnership",
            "outputs": [],
            "stateMutability": "nonpayable",
            "type": "function"
        },
        {
            "inputs": [
                {
                    "internalType": "address",
                    "name": "receiver",
                    "type": "address"
                }
            ],
            "name": "revokeReward",
            "outputs": [],
            "stateMutability": "nonpayable",
            "type": "function"
        },
        {
            "inputs": [
                {
                    "internalType": "address",
                    "name": "user",
                    "type": "address"
                }
            ],
            "name": "rewardAvailable",
            "outputs": [
                {
                    "internalType": "uint256",
                    "name": "",
                    "type": "uint256"
                }
            ],
            "stateMutability": "view",
            "type": "function"
        },
        {
            "inputs": [
                {
                    "internalType": "uint256",
                    "name": "",
                    "type": "uint256"
                }
            ],
            "name": "rounds",
            "outputs": [
                {
                    "internalType": "uint256",
                    "name": "epoch",
                    "type": "uint256"
                },
                {
                    "internalType": "uint256",
                    "name": "startTimestamp",
                    "type": "uint256"
                },
                {
                    "internalType": "uint256",
                    "name": "lockTimestamp",
                    "type": "uint256"
                },
                {
                    "internalType": "uint256",
                    "name": "closeTimestamp",
                    "type": "uint256"
                },
                {
                    "internalType": "int256",
                    "name": "lockPrice",
                    "type": "int256"
                },
                {
                    "internalType": "int256",
                    "name": "closePrice",
                    "type": "int256"
                },
                {
                    "internalType": "uint256",
                    "name": "lockOracleId",
                    "type": "uint256"
                },
                {
                    "internalType": "uint256",
                    "name": "closeOracleId",
                    "type": "uint256"
                },
                {
                    "internalType": "uint256",
                    "name": "totalAmount",
                    "type": "uint256"
                },
                {
                    "internalType": "uint256",
                    "name": "bullAmount",
                    "type": "uint256"
                },
                {
                    "internalType": "uint256",
                    "name": "bearAmount",
                    "type": "uint256"
                },
                {
                    "internalType": "uint256",
                    "name": "rewardBaseCalAmount",
                    "type": "uint256"
                },
                {
                    "internalType": "uint256",
                    "name": "rewardAmount",
                    "type": "uint256"
                },
                {
                    "internalType": "bool",
                    "name": "oracleCalled",
                    "type": "bool"
                }
            ],
            "stateMutability": "view",
            "type": "function"
        },
        {
            "inputs": [
                {
                    "internalType": "address",
                    "name": "_adminAddress",
                    "type": "address"
                }
            ],
            "name": "setAdmin",
            "outputs": [],
            "stateMutability": "nonpayable",
            "type": "function"
        },
        {
            "inputs": [
                {
                    "internalType": "uint256",
                    "name": "_bufferSeconds",
                    "type": "uint256"
                },
                {
                    "internalType": "uint256",
                    "name": "_intervalSeconds",
                    "type": "uint256"
                }
            ],
            "name": "setBufferAndIntervalSeconds",
            "outputs": [],
            "stateMutability": "nonpayable",
            "type": "function"
        },
        {
            "inputs": [
                {
                    "internalType": "uint256",
                    "name": "_f0Bonus",
                    "type": "uint256"
                },
                {
                    "internalType": "uint256",
                    "name": "_f1Bonus",
                    "type": "uint256"
                },
                {
                    "internalType": "uint256",
                    "name": "_f2Bonus",
                    "type": "uint256"
                },
                {
                    "internalType": "uint256",
                    "name": "_f3Bonus",
                    "type": "uint256"
                },
                {
                    "internalType": "uint256",
                    "name": "_f4Bonus",
                    "type": "uint256"
                },
                {
                    "internalType": "uint256",
                    "name": "_f5Bonus",
                    "type": "uint256"
                },
                {
                    "internalType": "uint256",
                    "name": "_f6Bonus",
                    "type": "uint256"
                }
            ],
            "name": "setBunus",
            "outputs": [],
            "stateMutability": "nonpayable",
            "type": "function"
        },
        {
            "inputs": [
                {
                    "internalType": "uint256",
                    "name": "_maxIndex",
                    "type": "uint256"
                }
            ],
            "name": "setMaxIndex",
            "outputs": [],
            "stateMutability": "nonpayable",
            "type": "function"
        },
        {
            "inputs": [
                {
                    "internalType": "uint256",
                    "name": "_minBetAmount",
                    "type": "uint256"
                }
            ],
            "name": "setMinBetAmount",
            "outputs": [],
            "stateMutability": "nonpayable",
            "type": "function"
        },
        {
            "inputs": [
                {
                    "internalType": "address",
                    "name": "_operatorAddress",
                    "type": "address"
                }
            ],
            "name": "setOperator",
            "outputs": [],
            "stateMutability": "nonpayable",
            "type": "function"
        },
        {
            "inputs": [
                {
                    "internalType": "address",
                    "name": "_oracle",
                    "type": "address"
                }
            ],
            "name": "setOracle",
            "outputs": [],
            "stateMutability": "nonpayable",
            "type": "function"
        },
        {
            "inputs": [
                {
                    "internalType": "uint256",
                    "name": "_oracleUpdateAllowance",
                    "type": "uint256"
                }
            ],
            "name": "setOracleUpdateAllowance",
            "outputs": [],
            "stateMutability": "nonpayable",
            "type": "function"
        },
        {
            "inputs": [
                {
                    "internalType": "uint256",
                    "name": "_startIndex",
                    "type": "uint256"
                }
            ],
            "name": "setStartIndex",
            "outputs": [],
            "stateMutability": "nonpayable",
            "type": "function"
        },
        {
            "inputs": [
                {
                    "internalType": "uint256",
                    "name": "_treasuryFee",
                    "type": "uint256"
                }
            ],
            "name": "setTreasuryFee",
            "outputs": [],
            "stateMutability": "nonpayable",
            "type": "function"
        },
        {
            "inputs": [
                {
                    "internalType": "uint256",
                    "name": "_vipPrice",
                    "type": "uint256"
                }
            ],
            "name": "setVIPPrice",
            "outputs": [],
            "stateMutability": "nonpayable",
            "type": "function"
        },
        {
            "inputs": [],
            "name": "startIndex",
            "outputs": [
                {
                    "internalType": "uint256",
                    "name": "",
                    "type": "uint256"
                }
            ],
            "stateMutability": "view",
            "type": "function"
        },
        {
            "inputs": [],
            "name": "token",
            "outputs": [
                {
                    "internalType": "contract IERC20",
                    "name": "",
                    "type": "address"
                }
            ],
            "stateMutability": "view",
            "type": "function"
        },
        {
            "inputs": [
                {
                    "internalType": "address",
                    "name": "newOwner",
                    "type": "address"
                }
            ],
            "name": "transferOwnership",
            "outputs": [],
            "stateMutability": "nonpayable",
            "type": "function"
        },
        {
            "inputs": [],
            "name": "treasuryAmount",
            "outputs": [
                {
                    "internalType": "uint256",
                    "name": "",
                    "type": "uint256"
                }
            ],
            "stateMutability": "view",
            "type": "function"
        },
        {
            "inputs": [],
            "name": "treasuryFee",
            "outputs": [
                {
                    "internalType": "uint256",
                    "name": "",
                    "type": "uint256"
                }
            ],
            "stateMutability": "view",
            "type": "function"
        },
        {
            "inputs": [],
            "name": "unpause",
            "outputs": [],
            "stateMutability": "nonpayable",
            "type": "function"
        },
        {
            "inputs": [
                {
                    "internalType": "address",
                    "name": "",
                    "type": "address"
                },
                {
                    "internalType": "uint256",
                    "name": "",
                    "type": "uint256"
                }
            ],
            "name": "userRounds",
            "outputs": [
                {
                    "internalType": "uint256",
                    "name": "",
                    "type": "uint256"
                }
            ],
            "stateMutability": "view",
            "type": "function"
        },
        {
            "inputs": [],
            "name": "vipPrice",
            "outputs": [
                {
                    "internalType": "uint256",
                    "name": "",
                    "type": "uint256"
                }
            ],
            "stateMutability": "view",
            "type": "function"
        },
        {
            "inputs": [
                {
                    "internalType": "uint256",
                    "name": "amount",
                    "type": "uint256"
                }
            ],
            "name": "withdraw",
            "outputs": [],
            "stateMutability": "nonpayable",
            "type": "function"
        }
    ],
    "bytecode": "0x60a06040526002805461ffff60a01b191690556304c4b4006010556301c9c3806011556301312d0060125562989680601355624c4b40601455623d0900601555622dc6c0601655620f4240601755620dbb9f601855620186a06019553480156200006857600080fd5b5060405162005d2b38038062005d2b8339810160408190526200008b91620001cd565b8888888888888888886200009f336200017d565b6000805460ff60a01b19169055600180556103e8811115620001075760405162461bcd60e51b815260206004820152601560248201527f54726561737572792066656520746f6f20686967680000000000000000000000604482015260640160405180910390fd5b60609890981b6001600160601b031916608052600280546001600160a01b03199081166001600160a01b03998a161790915560038054821697891697909717909655600480549096169490961693909317909355600655600591909155600755600c556008555062000280975050505050505050565b600080546001600160a01b038381166001600160a01b0319831681178455604051919092169283917f8be0079c531659141344cd1fd0a4f28419497f9722a3daafe3b4186f6b6457e09190a35050565b60008060008060008060008060006101208a8c031215620001ec578485fd5b8951620001f98162000267565b60208b01519099506200020c8162000267565b60408b01519098506200021f8162000267565b60608b0151909750620002328162000267565b8096505060808a0151945060a08a0151935060c08a0151925060e08a015191506101008a015190509295985092959850929598565b6001600160a01b03811681146200027d57600080fd5b50565b60805160601c615a236200030860003960008181610a5901528181610b5f01528181610e560152818161103a0152818161142401528181611819015281816127220152818161375701528181613aa401528181614465015281816144f40152818161458501528181614616015281816146a70152818161473801526147c90152615a236000f3fe608060405234801561001057600080fd5b506004361061043b5760003560e01c80637dc0d1d011610235578063b88a802f11610135578063ec324703116100c8578063f94bb9cf11610097578063fa968eea1161007c578063fa968eea14610a4b578063fc0c546a14610a54578063fc6f946814610a7b57600080fd5b8063f94bb9cf14610a2f578063f9ff119a14610a4257600080fd5b8063ec324703146109e4578063f2b3c809146109ed578063f2fde38b146109f6578063f7fdec2814610a0957600080fd5b8063d9d55eac11610104578063d9d55eac1461092a578063dc4c0e0a14610932578063dd1f7596146109c8578063eaba2361146109db57600080fd5b8063b88a802f146108f3578063cc32d176146108fb578063cf2f503914610904578063cf78044d1461091757600080fd5b8063a0c7f71c116101c8578063aaea853311610197578063b29a81401161017c578063b29a8140146108ad578063b3096588146108c0578063b3ab15fb146108e057600080fd5b8063aaea85331461087b578063aca323b8146108a457600080fd5b8063a0c7f71c14610833578063a2db5c8e14610846578063a4e034ac1461084f578063a91888651461085857600080fd5b80638c65c81f116102045780638c65c81f146106ef5780638da5cb5b146107d75780639185867d146107e8578063951fd6001461081157600080fd5b80637dc0d1d0146106ae5780638456cb59146106c1578063890dc766146106c95780638b8afcd7146106dc57600080fd5b8063492bb96311610340578063704b6c02116102d357806377e741c7116102a25780637b3205f5116102875780637b3205f51461068a5780637bf41254146106925780637d1cd04f146106a557600080fd5b806377e741c7146106645780637adbf9731461067757600080fd5b8063704b6c02146105f2578063715018a6146106055780637285c58b1461060d578063766718081461065b57600080fd5b8063605540111161030f57806360554011146105ba5780636204b9b3146105c35780636ba4c138146105cc5780636c188593146105df57600080fd5b8063492bb963146105795780634973cb5f1461058c5780635c975abb146105955780635ff7d9d5146105a757600080fd5b8063368acb09116103d35780633e0e828b116103a25780634250c4f6116103875780634250c4f614610556578063449b8d9d1461055e578063452fd75a1461057157600080fd5b80633e0e828b146105455780633f4ba83a1461054e57600080fd5b8063368acb091461050d5780633711b23f14610516578063378fe5821461051f5780633923e1b41461053257600080fd5b80631ca8a6101161040f5780631ca8a610146104b1578063273867d4146104c85780632ca869bf146104f15780632e1a7d4d146104fa57600080fd5b80623bdc74146104405780630e89e5a41461044a5780630f74174f1461045d578063127effb214610486575b600080fd5b610448610a8e565b005b6104486104583660046156b8565b610bc3565b60025461047190600160a01b900460ff1681565b60405190151581526020015b60405180910390f35b600454610499906001600160a01b031681565b6040516001600160a01b03909116815260200161047d565b6104ba60155481565b60405190815260200161047d565b6104ba6104d6366004615570565b6001600160a01b03166000908152600f602052604090205490565b6104ba60185481565b610448610508366004615675565b610f6f565b6104ba60095481565b6104ba60105481565b61044861052d366004615675565b6110a6565b6104486105403660046156b8565b611191565b6104ba60195481565b61044861152b565b610448611600565b61044861056c366004615675565b611889565b610448611b97565b6104486105873660046156d9565b611ce9565b6104ba60115481565b600054600160a01b900460ff16610471565b6104486105b5366004615675565b611fef565b6104ba600c5481565b6104ba60175481565b6104486105da3660046155e5565b6120f9565b6104486105ed366004615675565b612752565b610448610600366004615570565b612840565b610448612904565b61064c61061b36600461568d565b600d60209081526000928352604080842090915290825290208054600182015460029092015460ff91821692911683565b60405161047d93929190615853565b6104ba600a5481565b610448610672366004615675565b612918565b610448610685366004615570565b612a04565b610448612bbe565b6104716106a036600461568d565b612d83565b6104ba60065481565b600254610499906001600160a01b031681565b610448612f0f565b6104486106d73660046156b8565b612fbc565b6104486106ea36600461558a565b6130da565b61076d6106fd366004615675565b600e60205260009081526040902080546001820154600283015460038401546004850154600586015460068701546007880154600889015460098a0154600a8b0154600b8c0154600c8d0154600d909d01549b9c9a9b999a98999798969795969495939492939192909160ff168e565b604080519e8f5260208f019d909d529b8d019a909a5260608c019890985260808b019690965260a08a019490945260c089019290925260e088015261010087015261012086015261014085015261016084015261018083015215156101a08201526101c00161047d565b6000546001600160a01b0316610499565b6104996107f6366004615675565b601a602052600090815260409020546001600160a01b031681565b61082461081f3660046155b3565b613268565b60405161047d939291906157b1565b61047161084136600461568d565b61354d565b6104ba60165481565b6104ba60125481565b610471610866366004615570565b601c6020526000908152604090205460ff1681565b6104ba610889366004615570565b6001600160a01b03166000908152601d602052604090205490565b6104ba60145481565b6104486108bb36600461558a565b61374d565b6104ba6108ce366004615570565b601d6020526000908152604090205481565b6104486108ee366004615570565b613858565b61044861396e565b6104ba60085481565b610448610912366004615675565b613b09565b610448610925366004615675565b613ba0565b610448613c84565b61098a610940366004615570565b601b602052600090815260409020805460018201546002830154600384015460049094015460ff9384169492936001600160a01b0380841694600160a01b90940490911692169086565b60408051961515875260208701959095526001600160a01b0393841694860194909452901515606085015216608083015260a082015260c00161047d565b6104ba6109d636600461558a565b613e80565b6104ba60055481565b6104ba600b5481565b6104ba6103e881565b610448610a04366004615570565b613eb1565b600254610471907501000000000000000000000000000000000000000000900460ff1681565b610448610a3d366004615570565b613f41565b6104ba60135481565b6104ba60075481565b6104997f000000000000000000000000000000000000000000000000000000000000000081565b600354610499906001600160a01b031681565b60026001541415610ae65760405162461bcd60e51b815260206004820152601f60248201527f5265656e7472616e637947756172643a207265656e7472616e742063616c6c0060448201526064015b60405180910390fd5b60026001556003546001600160a01b03163314610b455760405162461bcd60e51b815260206004820152600960248201527f4e6f742061646d696e00000000000000000000000000000000000000000000006044820152606401610add565b600980546000909155600354610b88906001600160a01b037f000000000000000000000000000000000000000000000000000000000000000081169116836140b5565b6040518181527fb9197c6b8e21274bd1e2d9c956a88af5cfee510f630fab3f046300f88b422361906020015b60405180910390a15060018055565b610bcb614181565b60026001541415610c1e5760405162461bcd60e51b815260206004820152601f60248201527f5265656e7472616e637947756172643a207265656e7472616e742063616c6c006044820152606401610add565b6002600155333b15610c725760405162461bcd60e51b815260206004820152601460248201527f436f6e7472616374206e6f7420616c6c6f7765640000000000000000000000006044820152606401610add565b333214610cc15760405162461bcd60e51b815260206004820152601a60248201527f50726f787920636f6e7472616374206e6f7420616c6c6f7765640000000000006044820152606401610add565b600a548214610d125760405162461bcd60e51b815260206004820152601560248201527f42657420697320746f6f206561726c792f6c61746500000000000000000000006044820152606401610add565b610d1b826141db565b610d675760405162461bcd60e51b815260206004820152601260248201527f526f756e64206e6f74206265747461626c6500000000000000000000000000006044820152606401610add565b600754811015610ddf5760405162461bcd60e51b815260206004820152602c60248201527f42657420616d6f756e74206d7573742062652067726561746572207468616e2060448201527f6d696e426574416d6f756e7400000000000000000000000000000000000000006064820152608401610add565b6000828152600d6020908152604080832033845290915290206001015415610e495760405162461bcd60e51b815260206004820152601b60248201527f43616e206f6e6c7920626574206f6e63652070657220726f756e6400000000006044820152606401610add565b610e7e6001600160a01b037f000000000000000000000000000000000000000000000000000000000000000016333084614246565b6000828152600e602052604090206008810154829190610e9f9083906158c8565b6008820155600a810154610eb49083906158c8565b600a8201556000848152600d6020908152604080832033808552908352818420805460ff191660019081178255808201889055600f855283862080549182018155865284862001899055908452601c9092529091205460ff16610f2c57336000908152601c60205260409020805460ff191660011790555b604051838152859033907f0d8c1fe3e67ab767116a81f122b83c2557a8c2564019cb7c4f83de1aeb1f1f0d906020015b60405180910390a3505060018055505050565b610f77614181565b60026001541415610fca5760405162461bcd60e51b815260206004820152601f60248201527f5265656e7472616e637947756172643a207265656e7472616e742063616c6c006044820152606401610add565b60026001556003546001600160a01b031633146110295760405162461bcd60e51b815260206004820152600960248201527f4e6f742061646d696e00000000000000000000000000000000000000000000006044820152606401610add565b600354611063906001600160a01b037f000000000000000000000000000000000000000000000000000000000000000081169116836140b5565b600354604080516001600160a01b039092168252602082018390527f884edad9ce6fa2440d8a54cc123490eb96d2768479d49ff9c7366125a94243649101610bb4565b6110ae61429d565b6003546001600160a01b031633146111085760405162461bcd60e51b815260206004820152600960248201527f4e6f742061646d696e00000000000000000000000000000000000000000000006044820152606401610add565b806111555760405162461bcd60e51b815260206004820152601f60248201527f564950207072696365206d757374206265207375706572696f7220746f2030006044820152606401610add565b60108190556040518181527f895d6814b699b7583173b72e2c3cc825186ff1826214acffa40e55f53db7ea3a906020015b60405180910390a150565b611199614181565b600260015414156111ec5760405162461bcd60e51b815260206004820152601f60248201527f5265656e7472616e637947756172643a207265656e7472616e742063616c6c006044820152606401610add565b6002600155333b156112405760405162461bcd60e51b815260206004820152601460248201527f436f6e7472616374206e6f7420616c6c6f7765640000000000000000000000006044820152606401610add565b33321461128f5760405162461bcd60e51b815260206004820152601a60248201527f50726f787920636f6e7472616374206e6f7420616c6c6f7765640000000000006044820152606401610add565b600a5482146112e05760405162461bcd60e51b815260206004820152601560248201527f42657420697320746f6f206561726c792f6c61746500000000000000000000006044820152606401610add565b6112e9826141db565b6113355760405162461bcd60e51b815260206004820152601260248201527f526f756e64206e6f74206265747461626c6500000000000000000000000000006044820152606401610add565b6007548110156113ad5760405162461bcd60e51b815260206004820152602c60248201527f42657420616d6f756e74206d7573742062652067726561746572207468616e2060448201527f6d696e426574416d6f756e7400000000000000000000000000000000000000006064820152608401610add565b6000828152600d60209081526040808320338452909152902060010154156114175760405162461bcd60e51b815260206004820152601b60248201527f43616e206f6e6c7920626574206f6e63652070657220726f756e6400000000006044820152606401610add565b61144c6001600160a01b037f000000000000000000000000000000000000000000000000000000000000000016333084614246565b6000828152600e60205260409020600881015482919061146d9083906158c8565b600882015560098101546114829083906158c8565b60098201556000848152600d6020908152604080832033808552908352818420805460ff191681556001808201889055600f855283862080549182018155865284862001899055908452601c9092529091205460ff166114f757336000908152601c60205260409020805460ff191660011790555b604051838152859033907f438122d8cff518d18388099a5181f0d17a12b4f1b55faedf6e4a6acee0060c1290602001610f5c565b61153361429d565b6003546001600160a01b031633148061155657506004546001600160a01b031633145b6115a25760405162461bcd60e51b815260206004820152601260248201527f4e6f74206f70657261746f722f61646d696e00000000000000000000000000006044820152606401610add565b600280547fffffffffffffffffffff0000ffffffffffffffffffffffffffffffffffffffff1690556115d26142f6565b600a546040517faaa520fdd7d2c83061d632fa017b0432407e798818af63ea908589fceda39ab790600090a2565b611608614181565b6002600154141561165b5760405162461bcd60e51b815260206004820152601f60248201527f5265656e7472616e637947756172643a207265656e7472616e742063616c6c006044820152606401610add565b6002600155333b156116af5760405162461bcd60e51b815260206004820152601460248201527f436f6e7472616374206e6f7420616c6c6f7765640000000000000000000000006044820152606401610add565b3332146116fe5760405162461bcd60e51b815260206004820152601a60248201527f50726f787920636f6e7472616374206e6f7420616c6c6f7765640000000000006044820152606401610add565b336000908152601b60205260409020805460ff161561175f5760405162461bcd60e51b815260206004820152601360248201527f796f7520616c72656164792062757920564950000000000000000000000000006044820152606401610add565b611767614366565b60018083018290556000918252601a6020526040822080547fffffffffffffffffffffffff000000000000000000000000000000000000000090811633908117909255845460ff191690921784556002840180549092161790819055600160a01b900460ff16156117ec5760038201546117e9906001600160a01b031661444f565b90505b6003546010546118419133916001600160a01b039091169061180f908590615931565b6001600160a01b037f000000000000000000000000000000000000000000000000000000000000000016929190614246565b60018201546040805133815260208101929092527ffcef525ab609f152ff3737de7ba92c6b48186826377fc379a37961f591d6e63d91015b60405180910390a1505060018055565b611891614181565b600260015414156118e45760405162461bcd60e51b815260206004820152601f60248201527f5265656e7472616e637947756172643a207265656e7472616e742063616c6c006044820152606401610add565b6002600155333b156119385760405162461bcd60e51b815260206004820152601460248201527f436f6e7472616374206e6f7420616c6c6f7765640000000000000000000000006044820152606401610add565b3332146119875760405162461bcd60e51b815260206004820152601a60248201527f50726f787920636f6e7472616374206e6f7420616c6c6f7765640000000000006044820152606401610add565b336000908152601b602052604090206002810154600160a01b900460ff16156119f25760405162461bcd60e51b815260206004820152601260248201527f796f7520616c72656164792061726520463100000000000000000000000000006044820152606401610add565b336000908152601c602052604090205460ff1615611a785760405162461bcd60e51b815260206004820152602d60248201527f63616e206e6f74206170706c7920726566657272616c20636f6465206166746560448201527f7220616c726561647920626574000000000000000000000000000000000000006064820152608401610add565b6000828152601a60205260409020546001600160a01b0316611adc5760405162461bcd60e51b815260206004820152601c60248201527f726566657272616c20636f646520646f6573206e6f74206578697374000000006044820152606401610add565b6002810180547fffffffffffffffffffffff00ffffffffffffffffffffffffffffffffffffffff16600160a01b1790556000828152601a6020908152604091829020546003840180547fffffffffffffffffffffffff0000000000000000000000000000000000000000166001600160a01b039092169182179055600484018590558251338152918201529081018390527f7c6977d51e5fcf77585f928e3e7bc0b253184f9c9188cdfd343419902edd654890606001611879565b611b9f614181565b6004546001600160a01b03163314611bf95760405162461bcd60e51b815260206004820152600c60248201527f4e6f74206f70657261746f7200000000000000000000000000000000000000006044820152606401610add565b6002547501000000000000000000000000000000000000000000900460ff1615611c8b5760405162461bcd60e51b815260206004820152602360248201527f43616e206f6e6c792072756e2067656e657369735374617274526f756e64206f60448201527f6e636500000000000000000000000000000000000000000000000000000000006064820152608401610add565b600a54611c999060016158c8565b600a819055611ca790614815565b600280547fffffffffffffffffffff00ffffffffffffffffffffffffffffffffffffffffff167501000000000000000000000000000000000000000000179055565b611cf161429d565b6003546001600160a01b03163314611d4b5760405162461bcd60e51b815260206004820152600960248201527f4e6f742061646d696e00000000000000000000000000000000000000000000006044820152606401610add565b86611d985760405162461bcd60e51b815260206004820152601e60248201527f626f6e7573206630206d757374206265207375706572696f7220746f203000006044820152606401610add565b85611de55760405162461bcd60e51b815260206004820152601e60248201527f626f6e7573206631206d757374206265207375706572696f7220746f203000006044820152606401610add565b84611e325760405162461bcd60e51b815260206004820152601e60248201527f626f6e7573206632206d757374206265207375706572696f7220746f203000006044820152606401610add565b83611e7f5760405162461bcd60e51b815260206004820152601e60248201527f626f6e7573206633206d757374206265207375706572696f7220746f203000006044820152606401610add565b82611ecc5760405162461bcd60e51b815260206004820152601e60248201527f626f6e7573206634206d757374206265207375706572696f7220746f203000006044820152606401610add565b81611f195760405162461bcd60e51b815260206004820152601e60248201527f626f6e7573206635206d757374206265207375706572696f7220746f203000006044820152606401610add565b80611f665760405162461bcd60e51b815260206004820152601e60248201527f626f6e7573206636206d757374206265207375706572696f7220746f203000006044820152606401610add565b60118790556012869055601385905560148490556015839055601682905560178190556040805188815260208101889052908101869052606081018590526080810184905260a0810183905260c081018290527f82a2789c119d92826784aad0b6a9f30f99d2c9eb6d1e1a6027dd4a4824fc4bde9060e00160405180910390a150505050505050565b611ff761429d565b6003546001600160a01b031633146120515760405162461bcd60e51b815260206004820152600960248201527f4e6f742061646d696e00000000000000000000000000000000000000000000006044820152606401610add565b806120c45760405162461bcd60e51b815260206004820152602160248201527f737461727420696e646578206d757374206265207375706572696f7220746f2060448201527f30000000000000000000000000000000000000000000000000000000000000006064820152608401610add565b60198190556040518181527f6fb3f2bd887dc277ff33a9bc269ab5d376a0c8755d87ed6c7261f89dca2ff5ae90602001611186565b6002600154141561214c5760405162461bcd60e51b815260206004820152601f60248201527f5265656e7472616e637947756172643a207265656e7472616e742063616c6c006044820152606401610add565b6002600155333b156121a05760405162461bcd60e51b815260206004820152601460248201527f436f6e7472616374206e6f7420616c6c6f7765640000000000000000000000006044820152606401610add565b3332146121ef5760405162461bcd60e51b815260206004820152601a60248201527f50726f787920636f6e7472616374206e6f7420616c6c6f7765640000000000006044820152606401610add565b6000805b8281101561270e57600e600085858481811061221f57634e487b7160e01b600052603260045260246000fd5b90506020020135815260200190815260200160002060010154600014156122885760405162461bcd60e51b815260206004820152601560248201527f526f756e6420686173206e6f74207374617274656400000000000000000000006044820152606401610add565b600e60008585848181106122ac57634e487b7160e01b600052603260045260246000fd5b9050602002013581526020019081526020016000206003015442116123135760405162461bcd60e51b815260206004820152601360248201527f526f756e6420686173206e6f7420656e646564000000000000000000000000006044820152606401610add565b6000600e600086868581811061233957634e487b7160e01b600052603260045260246000fd5b60209081029290920135835250810191909152604001600020600d015460ff16156125485761238e85858481811061238157634e487b7160e01b600052603260045260246000fd5b905060200201353361354d565b6123da5760405162461bcd60e51b815260206004820152601660248201527f4e6f7420656c696769626c6520666f7220636c61696d000000000000000000006044820152606401610add565b6000600e600087878681811061240057634e487b7160e01b600052603260045260246000fd5b905060200201358152602001908152602001600020604051806101c001604052908160008201548152602001600182015481526020016002820154815260200160038201548152602001600482015481526020016005820154815260200160068201548152602001600782015481526020016008820154815260200160098201548152602001600a8201548152602001600b8201548152602001600c8201548152602001600d820160009054906101000a900460ff1615151515815250509050806101600151816101800151600d60008989888181106124f057634e487b7160e01b600052603260045260246000fd5b9050602002013581526020019081526020016000206000336001600160a01b03166001600160a01b031681526020019081526020016000206001015461253691906158f4565b61254091906158e0565b915050612627565b61257885858481811061256b57634e487b7160e01b600052603260045260246000fd5b9050602002013533612d83565b6125c45760405162461bcd60e51b815260206004820152601760248201527f4e6f7420656c696769626c6520666f7220726566756e640000000000000000006044820152606401610add565b600d60008686858181106125e857634e487b7160e01b600052603260045260246000fd5b9050602002013581526020019081526020016000206000336001600160a01b03166001600160a01b031681526020019081526020016000206001015490505b6001600d600087878681811061264d57634e487b7160e01b600052603260045260246000fd5b6020908102929092013583525081810192909252604090810160009081203382529092529020600201805460ff191691151591909117905561268f81846158c8565b92508484838181106126b157634e487b7160e01b600052603260045260246000fd5b90506020020135336001600160a01b03167f34fcbac0073d7c3d388e51312faf357774904998eeb8fca628b9e6f65ee1cbf7836040516126f391815260200190565b60405180910390a3508061270681615974565b9150506121f3565b508015612749576127496001600160a01b037f00000000000000000000000000000000000000000000000000000000000000001633836140b5565b50506001805550565b61275a61429d565b6003546001600160a01b031633146127b45760405162461bcd60e51b815260206004820152600960248201527f4e6f742061646d696e00000000000000000000000000000000000000000000006044820152606401610add565b806128015760405162461bcd60e51b815260206004820152601560248201527f4d757374206265207375706572696f7220746f203000000000000000000000006044820152606401610add565b6007819055600a546040518281527f90eb87c560a0213754ceb3a7fa3012f01acab0a35602c1e1995adf69dabc9d50906020015b60405180910390a250565b612848614893565b6001600160a01b03811661289e5760405162461bcd60e51b815260206004820152601660248201527f43616e6e6f74206265207a65726f2061646472657373000000000000000000006044820152606401610add565b600380547fffffffffffffffffffffffff0000000000000000000000000000000000000000166001600160a01b0383169081179091556040519081527f137b621413925496477d46e5055ac0d56178bdd724ba8bf843afceef18268ba390602001611186565b61290c614893565b61291660006148ed565b565b61292061429d565b6003546001600160a01b0316331461297a5760405162461bcd60e51b815260206004820152600960248201527f4e6f742061646d696e00000000000000000000000000000000000000000000006044820152606401610add565b6103e88111156129cc5760405162461bcd60e51b815260206004820152601560248201527f54726561737572792066656520746f6f206869676800000000000000000000006044820152606401610add565b6008819055600a546040518281527fb1c4ee38d35556741133da7ff9b6f7ab0fa88d0406133126ff128f635490a85790602001612835565b612a0c61429d565b6003546001600160a01b03163314612a665760405162461bcd60e51b815260206004820152600960248201527f4e6f742061646d696e00000000000000000000000000000000000000000000006044820152606401610add565b6001600160a01b038116612abc5760405162461bcd60e51b815260206004820152601660248201527f43616e6e6f74206265207a65726f2061646472657373000000000000000000006044820152606401610add565b6000600b55600280547fffffffffffffffffffffffff0000000000000000000000000000000000000000166001600160a01b038316908117909155604080517ffeaf968c000000000000000000000000000000000000000000000000000000008152905163feaf968c9160048082019260a092909190829003018186803b158015612b4657600080fd5b505afa158015612b5a573d6000803e3d6000fd5b505050506040513d601f19601f82011682018060405250810190612b7e9190615724565b50506040516001600160a01b03851681527fb3eacd0e351fafdfefdec84e1cd19679b38dbcd63ea7c2c24da17fd2bc3b3c0e935060200191506111869050565b612bc6614181565b6004546001600160a01b03163314612c205760405162461bcd60e51b815260206004820152600c60248201527f4e6f74206f70657261746f7200000000000000000000000000000000000000006044820152606401610add565b6002547501000000000000000000000000000000000000000000900460ff168015612c545750600254600160a01b900460ff165b612cec5760405162461bcd60e51b815260206004820152604660248201527f43616e206f6e6c792072756e2061667465722067656e6573697353746172745260448201527f6f756e6420616e642067656e657369734c6f636b526f756e642069732074726960648201527f6767657265640000000000000000000000000000000000000000000000000000608482015260a401610add565b600080612cf7614955565b915091508169ffffffffffffffffffff16600b81905550612d27600a548369ffffffffffffffffffff1683614b01565b612d4c6001600a54612d399190615931565b8369ffffffffffffffffffff1683614d0c565b612d636001600a54612d5e9190615931565b614f0d565b600a54612d719060016158c8565b600a819055612d7f90615096565b5050565b6000828152600d602090815260408083206001600160a01b0385168452909152808220815160608101909252805483929190829060ff166001811115612dd957634e487b7160e01b600052602160045260246000fd5b6001811115612df857634e487b7160e01b600052602160045260246000fd5b815260018281015460208084019190915260029384015460ff908116151560409485015260008a8152600e835284902084516101c08101865281548152938101549284019290925293810154928201929092526003820154606082015260048201546080820152600582015460a0820152600682015460c0820152600782015460e082015260088201546101008201526009820154610120820152600a820154610140820152600b820154610160820152600c820154610180820152600d909101549091161580156101a083018190529293509091612ed957508160400151155b8015612ef557506005548160600151612ef291906158c8565b42115b8015612f045750602082015115155b925050505b92915050565b612f17614181565b6003546001600160a01b0316331480612f3a57506004546001600160a01b031633145b612f865760405162461bcd60e51b815260206004820152601260248201527f4e6f74206f70657261746f722f61646d696e00000000000000000000000000006044820152606401610add565b612f8e61525d565b600a546040517f68b095021b1f40fe513109f513c66692f0b3219aee674a69f4efc57badb8201d90600090a2565b612fc461429d565b6003546001600160a01b0316331461301e5760405162461bcd60e51b815260206004820152600960248201527f4e6f742061646d696e00000000000000000000000000000000000000000000006044820152606401610add565b8082106130935760405162461bcd60e51b815260206004820152603160248201527f6275666665725365636f6e6473206d75737420626520696e666572696f72207460448201527f6f20696e74657276616c5365636f6e64730000000000000000000000000000006064820152608401610add565b6005829055600681905560408051838152602081018390527fe60149e0431fec12df63dfab5fce2a9cefe9a4d3df5f41cb626f579ae1f2b91a910160405180910390a15050565b6130e2614181565b600260015414156131355760405162461bcd60e51b815260206004820152601f60248201527f5265656e7472616e637947756172643a207265656e7472616e742063616c6c006044820152606401610add565b60026001556003546001600160a01b031633146131945760405162461bcd60e51b815260206004820152600960248201527f4e6f742061646d696e00000000000000000000000000000000000000000000006044820152606401610add565b6001600160a01b0382166000908152601b602052604090205460ff166131fc5760405162461bcd60e51b815260206004820152601760248201527f6f6e6c792070617920666f7220564950206d656d6265720000000000000000006044820152606401610add565b6001600160a01b0382166000908152601d6020526040812080548392906132249084906158c8565b9091555050604080516001600160a01b0384168152602081018390527fc41b6276ab9ca8a910439eada4cc5d3319119c136eeee8d15ee94b14c96961b89101611879565b6001600160a01b0383166000908152600f602052604081205460609182918490613293908790615931565b8111156132c1576001600160a01b0387166000908152600f60205260409020546132be908790615931565b90505b60008167ffffffffffffffff8111156132ea57634e487b7160e01b600052604160045260246000fd5b604051908082528060200260200182016040528015613313578160200160208202803683370190505b50905060008267ffffffffffffffff81111561333f57634e487b7160e01b600052604160045260246000fd5b6040519080825280602002602001820160405280156133a857816020015b60408051606081018252600080825260208083018290529282015282527fffffffffffffffffffffffffffffffffffffffffffffffffffffffffffffffff90920191018161335d5790505b50905060005b8381101561352e576001600160a01b038a166000908152600f602052604090206133d8828b6158c8565b815481106133f657634e487b7160e01b600052603260045260246000fd5b906000526020600020015483828151811061342157634e487b7160e01b600052603260045260246000fd5b602002602001018181525050600d600084838151811061345157634e487b7160e01b600052603260045260246000fd5b602090810291909101810151825281810192909252604090810160009081206001600160a01b038e168252909252908190208151606081019092528054829060ff1660018111156134b257634e487b7160e01b600052602160045260246000fd5b60018111156134d157634e487b7160e01b600052602160045260246000fd5b81526001820154602082015260029091015460ff161515604090910152825183908390811061351057634e487b7160e01b600052603260045260246000fd5b6020026020010181905250808061352690615974565b9150506133ae565b50818161353b858b6158c8565b95509550955050505093509350939050565b6000828152600d602090815260408083206001600160a01b0385168452909152808220815160608101909252805483929190829060ff1660018111156135a357634e487b7160e01b600052602160045260246000fd5b60018111156135c257634e487b7160e01b600052602160045260246000fd5b815260018281015460208084019190915260029384015460ff908116151560409485015260008a8152600e835284902084516101c081018652815481529381015492840192909252938101549282019290925260038201546060820152600482015460808201819052600583015460a08301819052600684015460c0840152600784015460e084015260088401546101008401526009840154610120840152600a840154610140840152600b840154610160840152600c840154610180840152600d9093015490931615156101a082015292935014156136a757600092505050612f09565b806101a0015180156136bc5750602082015115155b80156136ca57508160400151155b8015612f04575080608001518160a00151138015613708575060008251600181111561370657634e487b7160e01b600052602160045260246000fd5b145b80612f04575080608001518160a00151128015612f04575060018251600181111561374357634e487b7160e01b600052602160045260246000fd5b1495945050505050565b613755614893565b7f00000000000000000000000000000000000000000000000000000000000000006001600160a01b0316826001600160a01b031614156137fd5760405162461bcd60e51b815260206004820152602260248201527f43616e6e6f742062652070726564696374696f6e20746f6b656e20616464726560448201527f73730000000000000000000000000000000000000000000000000000000000006064820152608401610add565b6138116001600160a01b03831633836140b5565b816001600160a01b03167f14f11966a996e0629572e51064726d2057a80fbd34efc066682c06a71dbb6e988260405161384c91815260200190565b60405180910390a25050565b6003546001600160a01b031633146138b25760405162461bcd60e51b815260206004820152600960248201527f4e6f742061646d696e00000000000000000000000000000000000000000000006044820152606401610add565b6001600160a01b0381166139085760405162461bcd60e51b815260206004820152601660248201527f43616e6e6f74206265207a65726f2061646472657373000000000000000000006044820152606401610add565b600480547fffffffffffffffffffffffff0000000000000000000000000000000000000000166001600160a01b0383169081179091556040519081527fc47d127c07bdd56c5ccba00463ce3bd3c1bca71b4670eea6e5d0c02e4aa156e290602001611186565b613976614181565b600260015414156139c95760405162461bcd60e51b815260206004820152601f60248201527f5265656e7472616e637947756172643a207265656e7472616e742063616c6c006044820152606401610add565b6002600155336000908152601b602052604090205460ff16613a2d5760405162461bcd60e51b815260206004820152601960248201527f6f6e6c7920564950206d656d6265722063616e20636c61696d000000000000006044820152606401610add565b336000908152601d6020526040902054613a895760405162461bcd60e51b815260206004820152601860248201527f696e76616c696420616d6f756e74206f662072657761726400000000000000006044820152606401610add565b336000818152601d60205260408120805491905590613ad3907f00000000000000000000000000000000000000000000000000000000000000006001600160a01b031690836140b5565b60408051338152602081018390527fba8de60c3403ec381d1d484652ea1980e3c3e56359195c92525bff4ce47ad98e9101610bb4565b613b1161429d565b6003546001600160a01b03163314613b6b5760405162461bcd60e51b815260206004820152600960248201527f4e6f742061646d696e00000000000000000000000000000000000000000000006044820152606401610add565b600c8190556040518181527f93ccaceac092ffb842c46b8718667a13a80e9058dcd0bd403d0b47215b30da0790602001611186565b613ba861429d565b6003546001600160a01b03163314613c025760405162461bcd60e51b815260206004820152600960248201527f4e6f742061646d696e00000000000000000000000000000000000000000000006044820152606401610add565b80613c4f5760405162461bcd60e51b815260206004820152601f60248201527f6d617820696e646578206d757374206265207375706572696f7220746f2030006044820152606401610add565b60188190556040518181527f02584026a949baf3b689b5729c85fbfd84a0f07a9302e79a009a0d640e3d631c90602001611186565b613c8c614181565b6004546001600160a01b03163314613ce65760405162461bcd60e51b815260206004820152600c60248201527f4e6f74206f70657261746f7200000000000000000000000000000000000000006044820152606401610add565b6002547501000000000000000000000000000000000000000000900460ff16613d775760405162461bcd60e51b815260206004820152603160248201527f43616e206f6e6c792072756e2061667465722067656e6573697353746172745260448201527f6f756e64206973207472696767657265640000000000000000000000000000006064820152608401610add565b600254600160a01b900460ff1615613df75760405162461bcd60e51b815260206004820152602260248201527f43616e206f6e6c792072756e2067656e657369734c6f636b526f756e64206f6e60448201527f63650000000000000000000000000000000000000000000000000000000000006064820152608401610add565b600080613e02614955565b915091508169ffffffffffffffffffff16600b81905550613e32600a548369ffffffffffffffffffff1683614b01565b600a54613e409060016158c8565b600a819055613e4e90614815565b5050600280547fffffffffffffffffffffff00ffffffffffffffffffffffffffffffffffffffff16600160a01b179055565b600f6020528160005260406000208181548110613e9c57600080fd5b90600052602060002001600091509150505481565b613eb9614893565b6001600160a01b038116613f355760405162461bcd60e51b815260206004820152602660248201527f4f776e61626c653a206e6577206f776e657220697320746865207a65726f206160448201527f64647265737300000000000000000000000000000000000000000000000000006064820152608401610add565b613f3e816148ed565b50565b613f49614181565b60026001541415613f9c5760405162461bcd60e51b815260206004820152601f60248201527f5265656e7472616e637947756172643a207265656e7472616e742063616c6c006044820152606401610add565b60026001556003546001600160a01b03163314613ffb5760405162461bcd60e51b815260206004820152600960248201527f4e6f742061646d696e00000000000000000000000000000000000000000000006044820152606401610add565b6001600160a01b0381166000908152601d60205260409020546140605760405162461bcd60e51b815260206004820152601a60248201527f63616e206e6f74207265766f6b65207a65726f20616d6f756e740000000000006044820152606401610add565b6001600160a01b0381166000818152601d602090815260408083208054939055805193845290830182905290917f2b55a536280b752903a85ac064c696f884842225a044f598d15aa234b78873719101611879565b6040516001600160a01b03831660248201526044810182905261417c9084907fa9059cbb00000000000000000000000000000000000000000000000000000000906064015b604080517fffffffffffffffffffffffffffffffffffffffffffffffffffffffffffffffe08184030181529190526020810180517bffffffffffffffffffffffffffffffffffffffffffffffffffffffff167fffffffff00000000000000000000000000000000000000000000000000000000909316929092179091526152bb565b505050565b600054600160a01b900460ff16156129165760405162461bcd60e51b815260206004820152601060248201527f5061757361626c653a20706175736564000000000000000000000000000000006044820152606401610add565b6000818152600e60205260408120600101541580159061420b57506000828152600e602052604090206002015415155b801561422757506000828152600e602052604090206001015442115b8015612f095750506000908152600e6020526040902060020154421090565b6040516001600160a01b03808516602483015283166044820152606481018290526142979085907f23b872dd00000000000000000000000000000000000000000000000000000000906084016140fa565b50505050565b600054600160a01b900460ff166129165760405162461bcd60e51b815260206004820152601460248201527f5061757361626c653a206e6f74207061757365640000000000000000000000006044820152606401610add565b6142fe61429d565b600080547fffffffffffffffffffffff00ffffffffffffffffffffffffffffffffffffffff1690557f5db9ee0a495bf2e6ff9c91a7834c1ba4fdd244a5e8aa4e537bd38aeae4b073aa335b6040516001600160a01b03909116815260200160405180910390a1565b6018546040517fffffffffffffffffffffffffffffffffffffffff00000000000000000000000033606090811b8216602084015241901b166034820152446048820152456068820152426088820152600091829160a8016040516020818303038152906040528051906020012060001c6143e091906159ad565b90506000816019546143f291906158c8565b90505b6000818152601a60205260409020546001600160a01b031615612f095760185460195461442291906158c8565b811061443d576019546144369060016158c8565b90506143f5565b8061444781615974565b9150506143f5565b601154600090819061448f906001600160a01b037f0000000000000000000000000000000000000000000000000000000000000000169033908690614246565b60115461449c90826158c8565b6001600160a01b0384166000908152601b6020526040902060020154909150600160a01b900460ff1615612f09576001600160a01b038084166000908152601b602052604090206003015460125490821691614520917f00000000000000000000000000000000000000000000000000000000000000009091169033908490614246565b60125461452d90836158c8565b6001600160a01b0382166000908152601b6020526040902060020154909250600160a01b900460ff161561480e576001600160a01b038082166000908152601b6020526040902060030154601354908216916145b1917f00000000000000000000000000000000000000000000000000000000000000009091169033908490614246565b6013546145be90846158c8565b6001600160a01b0382166000908152601b6020526040902060020154909350600160a01b900460ff161561480c576001600160a01b038082166000908152601b602052604090206003015460145490821691614642917f00000000000000000000000000000000000000000000000000000000000000009091169033908490614246565b60145461464f90856158c8565b6001600160a01b0382166000908152601b6020526040902060020154909450600160a01b900460ff161561480a576001600160a01b038082166000908152601b6020526040902060030154601554908216916146d3917f00000000000000000000000000000000000000000000000000000000000000009091169033908490614246565b6015546146e090866158c8565b6001600160a01b0382166000908152601b6020526040902060020154909550600160a01b900460ff1615614808576001600160a01b038082166000908152601b602052604090206003015460165490821691614764917f00000000000000000000000000000000000000000000000000000000000000009091169033908490614246565b60165461477190876158c8565b6001600160a01b0382166000908152601b6020526040902060020154909650600160a01b900460ff1615614806576001600160a01b038082166000908152601b6020526040902060030154601754908216916147f5917f00000000000000000000000000000000000000000000000000000000000000009091169033908490614246565b60175461480290886158c8565b9650505b505b505b505b505b5092915050565b6000818152600e602052604090204260018201819055600654614837916158c8565b60028083019190915560065461484c916158f4565b61485690426158c8565b600382015581815560006008820181905560405183917f939f42374aa9bf1d8d8cd56d8a9110cb040cd8dfeae44080c6fcf2645e51b45291a25050565b6000546001600160a01b031633146129165760405162461bcd60e51b815260206004820181905260248201527f4f776e61626c653a2063616c6c6572206973206e6f7420746865206f776e65726044820152606401610add565b600080546001600160a01b038381167fffffffffffffffffffffffff0000000000000000000000000000000000000000831681178455604051919092169283917f8be0079c531659141344cd1fd0a4f28419497f9722a3daafe3b4186f6b6457e09190a35050565b6000806000600c544261496891906158c8565b90506000806000600260009054906101000a90046001600160a01b03166001600160a01b031663feaf968c6040518163ffffffff1660e01b815260040160a06040518083038186803b1580156149bd57600080fd5b505afa1580156149d1573d6000803e3d6000fd5b505050506040513d601f19601f820116820180604052508101906149f59190615724565b509350509250925083811115614a735760405162461bcd60e51b815260206004820152602e60248201527f4f7261636c6520757064617465206578636565646564206d61782074696d657360448201527f74616d7020616c6c6f77616e63650000000000000000000000000000000000006064820152608401610add565b600b548369ffffffffffffffffffff1611614af65760405162461bcd60e51b815260206004820152603d60248201527f4f7261636c652075706461746520726f756e644964206d757374206265206c6160448201527f72676572207468616e206f7261636c654c6174657374526f756e6449640000006064820152608401610add565b509094909350915050565b6000838152600e6020526040902060010154614b855760405162461bcd60e51b815260206004820152602b60248201527f43616e206f6e6c79206c6f636b20726f756e6420616674657220726f756e642060448201527f68617320737461727465640000000000000000000000000000000000000000006064820152608401610add565b6000838152600e6020526040902060020154421015614c0c5760405162461bcd60e51b815260206004820152602760248201527f43616e206f6e6c79206c6f636b20726f756e64206166746572206c6f636b546960448201527f6d657374616d70000000000000000000000000000000000000000000000000006064820152608401610add565b6005546000848152600e6020526040902060020154614c2b91906158c8565b421115614ca05760405162461bcd60e51b815260206004820152602860248201527f43616e206f6e6c79206c6f636b20726f756e642077697468696e20627566666560448201527f725365636f6e64730000000000000000000000000000000000000000000000006064820152608401610add565b6000838152600e60205260409020600654614cbb90426158c8565b60038201556004810182905560068101839055604051828152839085907f482e76a65b448a42deef26e99e58fb20c85e26f075defff8df6aa80459b39006906020015b60405180910390a350505050565b6000838152600e6020526040902060020154614d905760405162461bcd60e51b815260206004820152602960248201527f43616e206f6e6c7920656e6420726f756e6420616674657220726f756e64206860448201527f6173206c6f636b656400000000000000000000000000000000000000000000006064820152608401610add565b6000838152600e6020526040902060030154421015614e175760405162461bcd60e51b815260206004820152602760248201527f43616e206f6e6c7920656e6420726f756e6420616674657220636c6f7365546960448201527f6d657374616d70000000000000000000000000000000000000000000000000006064820152608401610add565b6005546000848152600e6020526040902060030154614e3691906158c8565b421115614eab5760405162461bcd60e51b815260206004820152602760248201527f43616e206f6e6c7920656e6420726f756e642077697468696e2062756666657260448201527f5365636f6e6473000000000000000000000000000000000000000000000000006064820152608401610add565b6000838152600e6020526040908190206005810183905560078101849055600d8101805460ff191660011790559051839085907fb6ff1fe915db84788cbbbc017f0d2bef9485fad9fd0bd8ce9340fde0d8410dd890614cfe9086815260200190565b6000818152600e60205260409020600b0154158015614f3b57506000818152600e60205260409020600c0154155b614f875760405162461bcd60e51b815260206004820152601260248201527f526577617264732063616c63756c6174656400000000000000000000000000006044820152606401610add565b6000818152600e6020526040812060048101546005820154919291829182911315614feb57836009015492506127106008548560080154614fc891906158f4565b614fd291906158e0565b9150818460080154614fe49190615931565b9050615024565b8360040154846005015412156150175783600a015492506127106008548560080154614fc891906158f4565b5050506008810154600090815b600b8401839055600c8401819055600980548391906000906150479084906158c8565b9091555050604080518481526020810183905290810183905285907f6dfdfcb09c8804d0058826cd2539f1acfbe3cb887c9be03d928035bce0f1a58d9060600160405180910390a25050505050565b6002547501000000000000000000000000000000000000000000900460ff166151275760405162461bcd60e51b815260206004820152603160248201527f43616e206f6e6c792072756e2061667465722067656e6573697353746172745260448201527f6f756e64206973207472696767657265640000000000000000000000000000006064820152608401610add565b600e6000615136600284615931565b815260200190815260200160002060030154600014156151be5760405162461bcd60e51b815260206004820152602e60248201527f43616e206f6e6c7920737461727420726f756e6420616674657220726f756e6460448201527f206e2d322068617320656e6465640000000000000000000000000000000000006064820152608401610add565b600e60006151cd600284615931565b8152602001908152602001600020600301544210156152545760405162461bcd60e51b815260206004820152603760248201527f43616e206f6e6c79207374617274206e657720726f756e64206166746572207260448201527f6f756e64206e2d3220636c6f736554696d657374616d700000000000000000006064820152608401610add565b613f3e81614815565b615265614181565b600080547fffffffffffffffffffffff00ffffffffffffffffffffffffffffffffffffffff16600160a01b1790557f62e78cea01bee320cd4e420270b5ea74000d11b0c9f74754ebdbfc544b05a2586143493390565b6000615310826040518060400160405280602081526020017f5361666545524332303a206c6f772d6c6576656c2063616c6c206661696c6564815250856001600160a01b03166153a09092919063ffffffff16565b80519091501561417c578080602001905181019061532e9190615655565b61417c5760405162461bcd60e51b815260206004820152602a60248201527f5361666545524332303a204552433230206f7065726174696f6e20646964206e60448201527f6f742073756363656564000000000000000000000000000000000000000000006064820152608401610add565b60606153af84846000856153b9565b90505b9392505050565b6060824710156154315760405162461bcd60e51b815260206004820152602660248201527f416464726573733a20696e73756666696369656e742062616c616e636520666f60448201527f722063616c6c00000000000000000000000000000000000000000000000000006064820152608401610add565b6001600160a01b0385163b6154885760405162461bcd60e51b815260206004820152601d60248201527f416464726573733a2063616c6c20746f206e6f6e2d636f6e74726163740000006044820152606401610add565b600080866001600160a01b031685876040516154a49190615795565b60006040518083038185875af1925050503d80600081146154e1576040519150601f19603f3d011682016040523d82523d6000602084013e6154e6565b606091505b50915091506154f6828286615501565b979650505050505050565b606083156155105750816153b2565b8251156155205782518084602001fd5b8160405162461bcd60e51b8152600401610add9190615877565b80356001600160a01b038116811461555157600080fd5b919050565b805169ffffffffffffffffffff8116811461555157600080fd5b600060208284031215615581578081fd5b6153b28261553a565b6000806040838503121561559c578081fd5b6155a58361553a565b946020939093013593505050565b6000806000606084860312156155c7578081fd5b6155d08461553a565b95602085013595506040909401359392505050565b600080602083850312156155f7578182fd5b823567ffffffffffffffff8082111561560e578384fd5b818501915085601f830112615621578384fd5b81358181111561562f578485fd5b8660208260051b8501011115615643578485fd5b60209290920196919550909350505050565b600060208284031215615666578081fd5b815180151581146153b2578182fd5b600060208284031215615686578081fd5b5035919050565b6000806040838503121561569f578182fd5b823591506156af6020840161553a565b90509250929050565b600080604083850312156156ca578182fd5b50508035926020909101359150565b600080600080600080600060e0888a0312156156f3578283fd5b505085359760208701359750604087013596606081013596506080810135955060a0810135945060c0013592509050565b600080600080600060a0868803121561573b578081fd5b61574486615556565b945060208601519350604086015192506060860151915061576760808701615556565b90509295509295909350565b6002811061579157634e487b7160e01b600052602160045260246000fd5b9052565b600082516157a7818460208701615948565b9190910192915050565b60608082528451828201819052600091906020906080850190828901855b828110156157eb578151845292840192908401906001016157cf565b50505084810382860152865180825287830191830190855b8181101561583c578351615818848251615773565b80860151848701526040908101511515908401529284019291850191600101615803565b505080945050505050826040830152949350505050565b606081016158618286615773565b8360208301528215156040830152949350505050565b6020815260008251806020840152615896816040850160208701615948565b601f017fffffffffffffffffffffffffffffffffffffffffffffffffffffffffffffffe0169190910160400192915050565b600082198211156158db576158db6159c1565b500190565b6000826158ef576158ef6159d7565b500490565b6000817fffffffffffffffffffffffffffffffffffffffffffffffffffffffffffffffff048311821515161561592c5761592c6159c1565b500290565b600082821015615943576159436159c1565b500390565b60005b8381101561596357818101518382015260200161594b565b838111156142975750506000910152565b60007fffffffffffffffffffffffffffffffffffffffffffffffffffffffffffffffff8214156159a6576159a66159c1565b5060010190565b6000826159bc576159bc6159d7565b500690565b634e487b7160e01b600052601160045260246000fd5b634e487b7160e01b600052601260045260246000fdfea2646970667358221220f4f92a3879012b31071cefdd88e5088b8f748dc9fca5752ea63316846d29b05264736f6c63430008040033",
    "linkReferences": {},
    "deployedLinkReferences": {}
}